{
  "contractName": "Dex",
  "abi": [
    {
      "anonymous": false,
      "inputs": [
        {
          "indexed": true,
          "internalType": "address",
          "name": "previousOwner",
          "type": "address"
        },
        {
          "indexed": true,
          "internalType": "address",
          "name": "newOwner",
          "type": "address"
        }
      ],
      "name": "OwnershipTransferred",
      "type": "event"
    },
    {
      "inputs": [
        {
          "internalType": "bytes32",
          "name": "ticker",
          "type": "bytes32"
        },
        {
          "internalType": "address",
          "name": "tokenAddress",
          "type": "address"
        }
      ],
      "name": "addToken",
      "outputs": [],
      "stateMutability": "nonpayable",
      "type": "function"
    },
    {
      "inputs": [
        {
          "internalType": "address",
          "name": "",
          "type": "address"
        },
        {
          "internalType": "bytes32",
          "name": "",
          "type": "bytes32"
        }
      ],
      "name": "balances",
      "outputs": [
        {
          "internalType": "uint256",
          "name": "",
          "type": "uint256"
        }
      ],
      "stateMutability": "view",
      "type": "function",
      "constant": true
    },
    {
      "inputs": [
        {
          "internalType": "uint256",
          "name": "amount",
          "type": "uint256"
        },
        {
          "internalType": "bytes32",
          "name": "ticker",
          "type": "bytes32"
        }
      ],
      "name": "deposit",
      "outputs": [],
      "stateMutability": "nonpayable",
      "type": "function"
    },
    {
      "inputs": [],
      "name": "depositEth",
      "outputs": [],
      "stateMutability": "payable",
      "type": "function",
      "payable": true
    },
    {
      "inputs": [],
      "name": "nextOrderId",
      "outputs": [
        {
          "internalType": "uint256",
          "name": "",
          "type": "uint256"
        }
      ],
      "stateMutability": "view",
      "type": "function",
      "constant": true
    },
    {
      "inputs": [
        {
          "internalType": "bytes32",
          "name": "",
          "type": "bytes32"
        },
        {
          "internalType": "uint256",
          "name": "",
          "type": "uint256"
        },
        {
          "internalType": "uint256",
          "name": "",
          "type": "uint256"
        }
      ],
      "name": "orderBook",
      "outputs": [
        {
          "internalType": "uint256",
          "name": "id",
          "type": "uint256"
        },
        {
          "internalType": "address",
          "name": "trader",
          "type": "address"
        },
        {
          "internalType": "enum Dex.Side",
          "name": "side",
          "type": "uint8"
        },
        {
          "internalType": "bytes32",
          "name": "ticker",
          "type": "bytes32"
        },
        {
          "internalType": "uint256",
          "name": "amount",
          "type": "uint256"
        },
        {
          "internalType": "uint256",
          "name": "price",
          "type": "uint256"
        }
      ],
      "stateMutability": "view",
      "type": "function",
      "constant": true
    },
    {
      "inputs": [],
      "name": "owner",
      "outputs": [
        {
          "internalType": "address",
          "name": "",
          "type": "address"
        }
      ],
      "stateMutability": "view",
      "type": "function",
      "constant": true
    },
    {
      "inputs": [],
      "name": "renounceOwnership",
      "outputs": [],
      "stateMutability": "nonpayable",
      "type": "function"
    },
    {
      "inputs": [
        {
          "internalType": "uint256",
          "name": "",
          "type": "uint256"
        }
      ],
      "name": "tokenList",
      "outputs": [
        {
          "internalType": "bytes32",
          "name": "",
          "type": "bytes32"
        }
      ],
      "stateMutability": "view",
      "type": "function",
      "constant": true
    },
    {
      "inputs": [
        {
          "internalType": "bytes32",
          "name": "",
          "type": "bytes32"
        }
      ],
      "name": "tokenMapping",
      "outputs": [
        {
          "internalType": "bytes32",
          "name": "ticker",
          "type": "bytes32"
        },
        {
          "internalType": "address",
          "name": "tokenAddress",
          "type": "address"
        }
      ],
      "stateMutability": "view",
      "type": "function",
      "constant": true
    },
    {
      "inputs": [
        {
          "internalType": "address",
          "name": "newOwner",
          "type": "address"
        }
      ],
      "name": "transferOwnership",
      "outputs": [],
      "stateMutability": "nonpayable",
      "type": "function"
    },
    {
      "inputs": [
        {
          "internalType": "uint256",
          "name": "amount",
          "type": "uint256"
        },
        {
          "internalType": "bytes32",
          "name": "ticker",
          "type": "bytes32"
        }
      ],
      "name": "withdraw",
      "outputs": [],
      "stateMutability": "nonpayable",
      "type": "function"
    },
    {
      "inputs": [
        {
          "internalType": "bytes32",
          "name": "ticker",
          "type": "bytes32"
        },
        {
          "internalType": "enum Dex.Side",
          "name": "side",
          "type": "uint8"
        }
      ],
      "name": "getOrderBook",
      "outputs": [
        {
          "components": [
            {
              "internalType": "uint256",
              "name": "id",
              "type": "uint256"
            },
            {
              "internalType": "address",
              "name": "trader",
              "type": "address"
            },
            {
              "internalType": "enum Dex.Side",
              "name": "side",
              "type": "uint8"
            },
            {
              "internalType": "bytes32",
              "name": "ticker",
              "type": "bytes32"
            },
            {
              "internalType": "uint256",
              "name": "amount",
              "type": "uint256"
            },
            {
              "internalType": "uint256",
              "name": "price",
              "type": "uint256"
            }
          ],
          "internalType": "struct Dex.Order[]",
          "name": "",
          "type": "tuple[]"
        }
      ],
      "stateMutability": "view",
      "type": "function",
      "constant": true
    },
    {
      "inputs": [
        {
          "internalType": "enum Dex.Side",
          "name": "side",
          "type": "uint8"
        },
        {
          "internalType": "bytes32",
          "name": "ticker",
          "type": "bytes32"
        },
        {
          "internalType": "uint256",
          "name": "amount",
          "type": "uint256"
        },
        {
          "internalType": "uint256",
          "name": "price",
          "type": "uint256"
        }
      ],
      "name": "createLimitOrder",
      "outputs": [],
      "stateMutability": "nonpayable",
      "type": "function"
    }
  ],
  "bytecode": "0x6080604052600060045534801561001557600080fd5b5061003261002761003760201b60201c565b61003f60201b60201c565b610103565b600033905090565b60008060009054906101000a900473ffffffffffffffffffffffffffffffffffffffff169050816000806101000a81548173ffffffffffffffffffffffffffffffffffffffff021916908373ffffffffffffffffffffffffffffffffffffffff1602179055508173ffffffffffffffffffffffffffffffffffffffff168173ffffffffffffffffffffffffffffffffffffffff167f8be0079c531659141344cd1fd0a4f28419497f9722a3daafe3b4186f6b6457e060405160405180910390a35050565b61246d80620001136000396000f3fe6080604052600436106100dd5760003560e01c80638da5cb5b1161007f578063a8d2021a11610059578063a8d2021a146102a5578063ba58ea68146102ce578063c9630cb01461030b578063f2fde38b14610334576100dd565b80638da5cb5b146102145780639776aacf1461023f5780639ead722214610268576100dd565b8063439370b1116100bb578063439370b11461018c578063667cb4ba146101965780636f3b62f9146101d4578063715018a6146101fd576100dd565b80630bb431b6146100e25780631f14df69146101245780632a58b33014610161575b600080fd5b3480156100ee57600080fd5b5061010960048036038101906101049190611a0b565b61035d565b60405161011b96959493929190611b34565b60405180910390f35b34801561013057600080fd5b5061014b60048036038101906101469190611bc1565b6103f0565b6040516101589190611c01565b60405180910390f35b34801561016d57600080fd5b50610176610415565b6040516101839190611c01565b60405180910390f35b61019461041b565b005b3480156101a257600080fd5b506101bd60048036038101906101b89190611c1c565b610514565b6040516101cb929190611c49565b60405180910390f35b3480156101e057600080fd5b506101fb60048036038101906101f69190611c97565b610558565b005b34801561020957600080fd5b50610212610f52565b005b34801561022057600080fd5b50610229610fda565b6040516102369190611cfe565b60405180910390f35b34801561024b57600080fd5b5061026660048036038101906102619190611d19565b611003565b005b34801561027457600080fd5b5061028f600480360381019061028a9190611d59565b61113e565b60405161029c9190611d86565b60405180910390f35b3480156102b157600080fd5b506102cc60048036038101906102c79190611da1565b611162565b005b3480156102da57600080fd5b506102f560048036038101906102f09190611de1565b61141c565b6040516103029190611f87565b60405180910390f35b34801561031757600080fd5b50610332600480360381019061032d9190611da1565b61156b565b005b34801561034057600080fd5b5061035b60048036038101906103569190611fa9565b611794565b005b6005602052826000526040600020602052816000526040600020818154811061038557600080fd5b906000526020600020906005020160009250925050508060000154908060010160009054906101000a900473ffffffffffffffffffffffffffffffffffffffff16908060010160149054906101000a900460ff16908060020154908060030154908060040154905086565b6003602052816000526040600020602052806000526040600020600091509150505481565b60045481565b61049e34600360003373ffffffffffffffffffffffffffffffffffffffff1673ffffffffffffffffffffffffffffffffffffffff16815260200190815260200160002060007f455448000000000000000000000000000000000000000000000000000000000081526020019081526020016000205461188c90919063ffffffff16565b600360003373ffffffffffffffffffffffffffffffffffffffff1673ffffffffffffffffffffffffffffffffffffffff16815260200190815260200160002060007f4554480000000000000000000000000000000000000000000000000000000000815260200190815260200160002081905550565b60016020528060005260406000206000915090508060000154908060010160009054906101000a900473ffffffffffffffffffffffffffffffffffffffff16905082565b6000600181111561056c5761056b611aae565b5b84600181111561057f5761057e611aae565b5b14156106195761059881836118a290919063ffffffff16565b600360003373ffffffffffffffffffffffffffffffffffffffff1673ffffffffffffffffffffffffffffffffffffffff16815260200190815260200160002060007f4554480000000000000000000000000000000000000000000000000000000000815260200190815260200160002054101561061457600080fd5b6106a4565b60018081111561062c5761062b611aae565b5b84600181111561063f5761063e611aae565b5b14156106a35781600360003373ffffffffffffffffffffffffffffffffffffffff1673ffffffffffffffffffffffffffffffffffffffff16815260200190815260200160002060008581526020019081526020016000205410156106a257600080fd5b5b5b60006005600085815260200190815260200160002060008660018111156106ce576106cd611aae565b5b81526020019081526020016000209050806040518060c0016040528060045481526020013373ffffffffffffffffffffffffffffffffffffffff16815260200187600181111561072157610720611aae565b5b81526020018681526020018581526020018481525090806001815401808255809150506001900390600052602060002090600502016000909190919091506000820151816000015560208201518160010160006101000a81548173ffffffffffffffffffffffffffffffffffffffff021916908373ffffffffffffffffffffffffffffffffffffffff16021790555060408201518160010160146101000a81548160ff021916908360018111156107db576107da611aae565b5b0217905550606082015181600201556080820151816003015560a082015181600401555050600080828054905011610814576000610826565b600182805490506108259190612005565b5b90506000600181111561083c5761083b611aae565b5b86600181111561084f5761084e611aae565b5b1415610baf575b6000811115610baa5781818154811061087257610871612039565b5b906000526020600020906005020160040154826001836108929190612005565b815481106108a3576108a2612039565b5b90600052602060002090600502016004015411156108c057610baa565b6000826001836108d09190612005565b815481106108e1576108e0612039565b5b90600052602060002090600502016040518060c0016040529081600082015481526020016001820160009054906101000a900473ffffffffffffffffffffffffffffffffffffffff1673ffffffffffffffffffffffffffffffffffffffff1673ffffffffffffffffffffffffffffffffffffffff1681526020016001820160149054906101000a900460ff16600181111561097f5761097e611aae565b5b600181111561099157610990611aae565b5b8152602001600282015481526020016003820154815260200160048201548152505090508282815481106109c8576109c7612039565b5b9060005260206000209060050201836001846109e49190612005565b815481106109f5576109f4612039565b5b9060005260206000209060050201600082015481600001556001820160009054906101000a900473ffffffffffffffffffffffffffffffffffffffff168160010160006101000a81548173ffffffffffffffffffffffffffffffffffffffff021916908373ffffffffffffffffffffffffffffffffffffffff1602179055506001820160149054906101000a900460ff168160010160146101000a81548160ff02191690836001811115610aac57610aab611aae565b5b021790555060028201548160020155600382015481600301556004820154816004015590505080838381548110610ae657610ae5612039565b5b90600052602060002090600502016000820151816000015560208201518160010160006101000a81548173ffffffffffffffffffffffffffffffffffffffff021916908373ffffffffffffffffffffffffffffffffffffffff16021790555060408201518160010160146101000a81548160ff02191690836001811115610b7057610b6f611aae565b5b0217905550606082015181600201556080820151816003015560a082015181600401559050508180610ba190612068565b92505050610856565b610f32565b600180811115610bc257610bc1611aae565b5b866001811115610bd557610bd4611aae565b5b1415610f31575b6000811115610f3057818181548110610bf857610bf7612039565b5b90600052602060002090600502016004015482600183610c189190612005565b81548110610c2957610c28612039565b5b9060005260206000209060050201600401541015610c4657610f30565b600082600183610c569190612005565b81548110610c6757610c66612039565b5b90600052602060002090600502016040518060c0016040529081600082015481526020016001820160009054906101000a900473ffffffffffffffffffffffffffffffffffffffff1673ffffffffffffffffffffffffffffffffffffffff1673ffffffffffffffffffffffffffffffffffffffff1681526020016001820160149054906101000a900460ff166001811115610d0557610d04611aae565b5b6001811115610d1757610d16611aae565b5b815260200160028201548152602001600382015481526020016004820154815250509050828281548110610d4e57610d4d612039565b5b906000526020600020906005020183600184610d6a9190612005565b81548110610d7b57610d7a612039565b5b9060005260206000209060050201600082015481600001556001820160009054906101000a900473ffffffffffffffffffffffffffffffffffffffff168160010160006101000a81548173ffffffffffffffffffffffffffffffffffffffff021916908373ffffffffffffffffffffffffffffffffffffffff1602179055506001820160149054906101000a900460ff168160010160146101000a81548160ff02191690836001811115610e3257610e31611aae565b5b021790555060028201548160020155600382015481600301556004820154816004015590505080838381548110610e6c57610e6b612039565b5b90600052602060002090600502016000820151816000015560208201518160010160006101000a81548173ffffffffffffffffffffffffffffffffffffffff021916908373ffffffffffffffffffffffffffffffffffffffff16021790555060408201518160010160146101000a81548160ff02191690836001811115610ef657610ef5611aae565b5b0217905550606082015181600201556080820151816003015560a082015181600401559050508180610f2790612068565b92505050610bdc565b5b5b60046000815480929190610f4590612092565b9190505550505050505050565b610f5a6118b8565b73ffffffffffffffffffffffffffffffffffffffff16610f78610fda565b73ffffffffffffffffffffffffffffffffffffffff1614610fce576040517f08c379a0000000000000000000000000000000000000000000000000000000008152600401610fc590612138565b60405180910390fd5b610fd860006118c0565b565b60008060009054906101000a900473ffffffffffffffffffffffffffffffffffffffff16905090565b61100b6118b8565b73ffffffffffffffffffffffffffffffffffffffff16611029610fda565b73ffffffffffffffffffffffffffffffffffffffff161461107f576040517f08c379a000000000000000000000000000000000000000000000000000000000815260040161107690612138565b60405180910390fd5b60405180604001604052808381526020018273ffffffffffffffffffffffffffffffffffffffff16815250600160008481526020019081526020016000206000820151816000015560208201518160010160006101000a81548173ffffffffffffffffffffffffffffffffffffffff021916908373ffffffffffffffffffffffffffffffffffffffff16021790555090505060028290806001815401808255809150506001900390600052602060002001600090919091909150555050565b6002818154811061114e57600080fd5b906000526020600020016000915090505481565b80600073ffffffffffffffffffffffffffffffffffffffff166001600083815260200190815260200160002060010160009054906101000a900473ffffffffffffffffffffffffffffffffffffffff1673ffffffffffffffffffffffffffffffffffffffff161415611209576040517f08c379a0000000000000000000000000000000000000000000000000000000008152600401611200906121a4565b60405180910390fd5b82600360003373ffffffffffffffffffffffffffffffffffffffff1673ffffffffffffffffffffffffffffffffffffffff168152602001908152602001600020600084815260200190815260200160002054101561129c576040517f08c379a000000000000000000000000000000000000000000000000000000000815260040161129390612210565b60405180910390fd5b6112ff83600360003373ffffffffffffffffffffffffffffffffffffffff1673ffffffffffffffffffffffffffffffffffffffff16815260200190815260200160002060008581526020019081526020016000205461198490919063ffffffff16565b600360003373ffffffffffffffffffffffffffffffffffffffff1673ffffffffffffffffffffffffffffffffffffffff1681526020019081526020016000206000848152602001908152602001600020819055506001600083815260200190815260200160002060010160009054906101000a900473ffffffffffffffffffffffffffffffffffffffff1673ffffffffffffffffffffffffffffffffffffffff1663a9059cbb33856040518363ffffffff1660e01b81526004016113c4929190612230565b602060405180830381600087803b1580156113de57600080fd5b505af11580156113f2573d6000803e3d6000fd5b505050506040513d601f19601f820116820180604052508101906114169190612291565b50505050565b606060056000848152602001908152602001600020600083600181111561144657611445611aae565b5b8152602001908152602001600020805480602002602001604051908101604052809291908181526020016000905b8282101561155f57838290600052602060002090600502016040518060c0016040529081600082015481526020016001820160009054906101000a900473ffffffffffffffffffffffffffffffffffffffff1673ffffffffffffffffffffffffffffffffffffffff1673ffffffffffffffffffffffffffffffffffffffff1681526020016001820160149054906101000a900460ff16600181111561151c5761151b611aae565b5b600181111561152e5761152d611aae565b5b8152602001600282015481526020016003820154815260200160048201548152505081526020019060010190611474565b50505050905092915050565b80600073ffffffffffffffffffffffffffffffffffffffff166001600083815260200190815260200160002060010160009054906101000a900473ffffffffffffffffffffffffffffffffffffffff1673ffffffffffffffffffffffffffffffffffffffff161415611612576040517f08c379a0000000000000000000000000000000000000000000000000000000008152600401611609906121a4565b60405180910390fd5b6001600083815260200190815260200160002060010160009054906101000a900473ffffffffffffffffffffffffffffffffffffffff1673ffffffffffffffffffffffffffffffffffffffff166323b872dd3330866040518463ffffffff1660e01b8152600401611685939291906122be565b602060405180830381600087803b15801561169f57600080fd5b505af11580156116b3573d6000803e3d6000fd5b505050506040513d601f19601f820116820180604052508101906116d79190612291565b5061173b83600360003373ffffffffffffffffffffffffffffffffffffffff1673ffffffffffffffffffffffffffffffffffffffff16815260200190815260200160002060008581526020019081526020016000205461188c90919063ffffffff16565b600360003373ffffffffffffffffffffffffffffffffffffffff1673ffffffffffffffffffffffffffffffffffffffff168152602001908152602001600020600084815260200190815260200160002081905550505050565b61179c6118b8565b73ffffffffffffffffffffffffffffffffffffffff166117ba610fda565b73ffffffffffffffffffffffffffffffffffffffff1614611810576040517f08c379a000000000000000000000000000000000000000000000000000000000815260040161180790612138565b60405180910390fd5b600073ffffffffffffffffffffffffffffffffffffffff168173ffffffffffffffffffffffffffffffffffffffff161415611880576040517f08c379a000000000000000000000000000000000000000000000000000000000815260040161187790612367565b60405180910390fd5b611889816118c0565b50565b6000818361189a9190612387565b905092915050565b600081836118b091906123dd565b905092915050565b600033905090565b60008060009054906101000a900473ffffffffffffffffffffffffffffffffffffffff169050816000806101000a81548173ffffffffffffffffffffffffffffffffffffffff021916908373ffffffffffffffffffffffffffffffffffffffff1602179055508173ffffffffffffffffffffffffffffffffffffffff168173ffffffffffffffffffffffffffffffffffffffff167f8be0079c531659141344cd1fd0a4f28419497f9722a3daafe3b4186f6b6457e060405160405180910390a35050565b600081836119929190612005565b905092915050565b600080fd5b6000819050919050565b6119b28161199f565b81146119bd57600080fd5b50565b6000813590506119cf816119a9565b92915050565b6000819050919050565b6119e8816119d5565b81146119f357600080fd5b50565b600081359050611a05816119df565b92915050565b600080600060608486031215611a2457611a2361199a565b5b6000611a32868287016119c0565b9350506020611a43868287016119f6565b9250506040611a54868287016119f6565b9150509250925092565b611a67816119d5565b82525050565b600073ffffffffffffffffffffffffffffffffffffffff82169050919050565b6000611a9882611a6d565b9050919050565b611aa881611a8d565b82525050565b7f4e487b7100000000000000000000000000000000000000000000000000000000600052602160045260246000fd5b60028110611aee57611aed611aae565b5b50565b6000819050611aff82611add565b919050565b6000611b0f82611af1565b9050919050565b611b1f81611b04565b82525050565b611b2e8161199f565b82525050565b600060c082019050611b496000830189611a5e565b611b566020830188611a9f565b611b636040830187611b16565b611b706060830186611b25565b611b7d6080830185611a5e565b611b8a60a0830184611a5e565b979650505050505050565b611b9e81611a8d565b8114611ba957600080fd5b50565b600081359050611bbb81611b95565b92915050565b60008060408385031215611bd857611bd761199a565b5b6000611be685828601611bac565b9250506020611bf7858286016119c0565b9150509250929050565b6000602082019050611c166000830184611a5e565b92915050565b600060208284031215611c3257611c3161199a565b5b6000611c40848285016119c0565b91505092915050565b6000604082019050611c5e6000830185611b25565b611c6b6020830184611a9f565b9392505050565b60028110611c7f57600080fd5b50565b600081359050611c9181611c72565b92915050565b60008060008060808587031215611cb157611cb061199a565b5b6000611cbf87828801611c82565b9450506020611cd0878288016119c0565b9350506040611ce1878288016119f6565b9250506060611cf2878288016119f6565b91505092959194509250565b6000602082019050611d136000830184611a9f565b92915050565b60008060408385031215611d3057611d2f61199a565b5b6000611d3e858286016119c0565b9250506020611d4f85828601611bac565b9150509250929050565b600060208284031215611d6f57611d6e61199a565b5b6000611d7d848285016119f6565b91505092915050565b6000602082019050611d9b6000830184611b25565b92915050565b60008060408385031215611db857611db761199a565b5b6000611dc6858286016119f6565b9250506020611dd7858286016119c0565b9150509250929050565b60008060408385031215611df857611df761199a565b5b6000611e06858286016119c0565b9250506020611e1785828601611c82565b9150509250929050565b600081519050919050565b600082825260208201905092915050565b6000819050602082019050919050565b611e56816119d5565b82525050565b611e6581611a8d565b82525050565b611e7481611b04565b82525050565b611e838161199f565b82525050565b60c082016000820151611e9f6000850182611e4d565b506020820151611eb26020850182611e5c565b506040820151611ec56040850182611e6b565b506060820151611ed86060850182611e7a565b506080820151611eeb6080850182611e4d565b5060a0820151611efe60a0850182611e4d565b50505050565b6000611f108383611e89565b60c08301905092915050565b6000602082019050919050565b6000611f3482611e21565b611f3e8185611e2c565b9350611f4983611e3d565b8060005b83811015611f7a578151611f618882611f04565b9750611f6c83611f1c565b925050600181019050611f4d565b5085935050505092915050565b60006020820190508181036000830152611fa18184611f29565b905092915050565b600060208284031215611fbf57611fbe61199a565b5b6000611fcd84828501611bac565b91505092915050565b7f4e487b7100000000000000000000000000000000000000000000000000000000600052601160045260246000fd5b6000612010826119d5565b915061201b836119d5565b92508282101561202e5761202d611fd6565b5b828203905092915050565b7f4e487b7100000000000000000000000000000000000000000000000000000000600052603260045260246000fd5b6000612073826119d5565b9150600082141561208757612086611fd6565b5b600182039050919050565b600061209d826119d5565b91507fffffffffffffffffffffffffffffffffffffffffffffffffffffffffffffffff8214156120d0576120cf611fd6565b5b600182019050919050565b600082825260208201905092915050565b7f4f776e61626c653a2063616c6c6572206973206e6f7420746865206f776e6572600082015250565b60006121226020836120db565b915061212d826120ec565b602082019050919050565b6000602082019050818103600083015261215181612115565b9050919050565b7f546f6b656e20646f6573206e6f74206578697374000000000000000000000000600082015250565b600061218e6014836120db565b915061219982612158565b602082019050919050565b600060208201905081810360008301526121bd81612181565b9050919050565b7f42616c616e6365206e6f742073756666696369656e7400000000000000000000600082015250565b60006121fa6016836120db565b9150612205826121c4565b602082019050919050565b60006020820190508181036000830152612229816121ed565b9050919050565b60006040820190506122456000830185611a9f565b6122526020830184611a5e565b9392505050565b60008115159050919050565b61226e81612259565b811461227957600080fd5b50565b60008151905061228b81612265565b92915050565b6000602082840312156122a7576122a661199a565b5b60006122b58482850161227c565b91505092915050565b60006060820190506122d36000830186611a9f565b6122e06020830185611a9f565b6122ed6040830184611a5e565b949350505050565b7f4f776e61626c653a206e6577206f776e657220697320746865207a65726f206160008201527f6464726573730000000000000000000000000000000000000000000000000000602082015250565b60006123516026836120db565b915061235c826122f5565b604082019050919050565b6000602082019050818103600083015261238081612344565b9050919050565b6000612392826119d5565b915061239d836119d5565b9250827fffffffffffffffffffffffffffffffffffffffffffffffffffffffffffffffff038211156123d2576123d1611fd6565b5b828201905092915050565b60006123e8826119d5565b91506123f3836119d5565b9250817fffffffffffffffffffffffffffffffffffffffffffffffffffffffffffffffff048311821515161561242c5761242b611fd6565b5b82820290509291505056fea2646970667358221220c6c2a055479d1073dd94bf7fbf9ab9cac9ac66f68d18054b7f3aa3c50b568c3c64736f6c63430008080033",
  "immutableReferences": {},
  "source": "// SPDX-License-Identifier: MIT\r\n\r\npragma solidity 0.8.8;\r\npragma experimental ABIEncoderV2;\r\n\r\nimport \"./wallet.sol\";\r\n\r\ncontract Dex is Wallet{\r\n    using SafeMath for uint256;\r\n\r\n    enum Side{\r\n        BUY,\r\n        SELL\r\n    }\r\n\r\n    struct Order {\r\n        uint id;\r\n        address trader;\r\n        Side side;\r\n        bytes32 ticker;\r\n        uint amount;\r\n        uint price;\r\n    }\r\n\r\n    uint public nextOrderId = 0;\r\n\r\n    mapping(bytes32 => mapping(uint => Order[])) public orderBook;\r\n\r\n    function getOrderBook(bytes32 ticker, Side side) view public returns(Order[] memory) {\r\n        return orderBook[ticker][uint(side)];\r\n    }\r\n\r\n    function createLimitOrder(Side side, bytes32 ticker, uint amount, uint price) public {\r\n        if (side == Side.BUY) {\r\n            require(balances[msg.sender][\"ETH\"] >= amount.mul(price));\r\n        }\r\n        else if (side == Side.SELL) {\r\n            require(balances[msg.sender][ticker] >= amount);\r\n        }\r\n\r\n        Order[] storage orders = orderBook[ticker][uint(side)];\r\n        orders.push(\r\n            Order(nextOrderId, msg.sender, side, ticker, amount, price)\r\n            );\r\n        \r\n        //Buble sort\r\n        uint i = orders.length > 0 ? orders.length - 1 : 0;\r\n\r\n        if(side == Side.BUY) {\r\n            while(i > 0){\r\n                if(orders[i-1].price > orders[i].price){\r\n                    break;\r\n                }\r\n                Order memory orderToMove = orders[i-1];\r\n                orders[i-1] = orders[i];\r\n                orders[i] = orderToMove;\r\n                i--;\r\n            }\r\n        } else if(side == Side.SELL) {\r\n            while(i > 0){\r\n                if(orders[i-1].price < orders[i].price){\r\n                    break;\r\n                }\r\n                Order memory orderToMove = orders[i-1];\r\n                orders[i-1] = orders[i];\r\n                orders[i] = orderToMove;\r\n                i--;\r\n            }\r\n        }\r\n\r\n        nextOrderId++;\r\n    }\r\n}\r\n\r\n",
  "sourcePath": "E:\\dishonored 2\\Blockchain\\Project\\blockchain\\Building Dex Moralis\\contracts\\dex.sol",
  "compiler": {
    "name": "solc",
    "version": "0.8.8+commit.dddeac2f.Emscripten.clang"
  },
  "schemaVersion": "3.4.4",
  "updatedAt": "2022-06-16T15:58:47.689Z",
  "networkType": "ethereum",
  "devdoc": {
    "kind": "dev",
    "methods": {
      "owner()": {
        "details": "Returns the address of the current owner."
      },
      "renounceOwnership()": {
        "details": "Leaves the contract without owner. It will not be possible to call `onlyOwner` functions anymore. Can only be called by the current owner. NOTE: Renouncing ownership will leave the contract without an owner, thereby removing any functionality that is only available to the owner."
      },
      "transferOwnership(address)": {
        "details": "Transfers ownership of the contract to a new account (`newOwner`). Can only be called by the current owner."
      }
    },
    "version": 1
  },
  "userdoc": {
    "kind": "user",
    "methods": {},
    "version": 1
  }
}