{
  "contractName": "Dex",
  "abi": [
    {
      "anonymous": false,
      "inputs": [
        {
          "indexed": true,
          "internalType": "address",
          "name": "previousOwner",
          "type": "address"
        },
        {
          "indexed": true,
          "internalType": "address",
          "name": "newOwner",
          "type": "address"
        }
      ],
      "name": "OwnershipTransferred",
      "type": "event"
    },
    {
      "inputs": [
        {
          "internalType": "bytes32",
          "name": "ticker",
          "type": "bytes32"
        },
        {
          "internalType": "address",
          "name": "tokenAddress",
          "type": "address"
        }
      ],
      "name": "addToken",
      "outputs": [],
      "stateMutability": "nonpayable",
      "type": "function"
    },
    {
      "inputs": [
        {
          "internalType": "address",
          "name": "",
          "type": "address"
        },
        {
          "internalType": "bytes32",
          "name": "",
          "type": "bytes32"
        }
      ],
      "name": "balances",
      "outputs": [
        {
          "internalType": "uint256",
          "name": "",
          "type": "uint256"
        }
      ],
      "stateMutability": "view",
      "type": "function",
      "constant": true
    },
    {
      "inputs": [
        {
          "internalType": "uint256",
          "name": "amount",
          "type": "uint256"
        },
        {
          "internalType": "bytes32",
          "name": "ticker",
          "type": "bytes32"
        }
      ],
      "name": "deposit",
      "outputs": [],
      "stateMutability": "nonpayable",
      "type": "function"
    },
    {
      "inputs": [],
      "name": "depositEth",
      "outputs": [],
      "stateMutability": "payable",
      "type": "function",
      "payable": true
    },
    {
      "inputs": [],
      "name": "nextOrderId",
      "outputs": [
        {
          "internalType": "uint256",
          "name": "",
          "type": "uint256"
        }
      ],
      "stateMutability": "view",
      "type": "function",
      "constant": true
    },
    {
      "inputs": [
        {
          "internalType": "bytes32",
          "name": "",
          "type": "bytes32"
        },
        {
          "internalType": "uint256",
          "name": "",
          "type": "uint256"
        },
        {
          "internalType": "uint256",
          "name": "",
          "type": "uint256"
        }
      ],
      "name": "orderBook",
      "outputs": [
        {
          "internalType": "uint256",
          "name": "id",
          "type": "uint256"
        },
        {
          "internalType": "address",
          "name": "trader",
          "type": "address"
        },
        {
          "internalType": "enum Dex.Side",
          "name": "side",
          "type": "uint8"
        },
        {
          "internalType": "bytes32",
          "name": "ticker",
          "type": "bytes32"
        },
        {
          "internalType": "uint256",
          "name": "amount",
          "type": "uint256"
        },
        {
          "internalType": "uint256",
          "name": "price",
          "type": "uint256"
        },
        {
          "internalType": "uint256",
          "name": "filled",
          "type": "uint256"
        }
      ],
      "stateMutability": "view",
      "type": "function",
      "constant": true
    },
    {
      "inputs": [],
      "name": "owner",
      "outputs": [
        {
          "internalType": "address",
          "name": "",
          "type": "address"
        }
      ],
      "stateMutability": "view",
      "type": "function",
      "constant": true
    },
    {
      "inputs": [],
      "name": "renounceOwnership",
      "outputs": [],
      "stateMutability": "nonpayable",
      "type": "function"
    },
    {
      "inputs": [
        {
          "internalType": "uint256",
          "name": "",
          "type": "uint256"
        }
      ],
      "name": "tokenList",
      "outputs": [
        {
          "internalType": "bytes32",
          "name": "",
          "type": "bytes32"
        }
      ],
      "stateMutability": "view",
      "type": "function",
      "constant": true
    },
    {
      "inputs": [
        {
          "internalType": "bytes32",
          "name": "",
          "type": "bytes32"
        }
      ],
      "name": "tokenMapping",
      "outputs": [
        {
          "internalType": "bytes32",
          "name": "ticker",
          "type": "bytes32"
        },
        {
          "internalType": "address",
          "name": "tokenAddress",
          "type": "address"
        }
      ],
      "stateMutability": "view",
      "type": "function",
      "constant": true
    },
    {
      "inputs": [
        {
          "internalType": "address",
          "name": "newOwner",
          "type": "address"
        }
      ],
      "name": "transferOwnership",
      "outputs": [],
      "stateMutability": "nonpayable",
      "type": "function"
    },
    {
      "inputs": [
        {
          "internalType": "uint256",
          "name": "amount",
          "type": "uint256"
        },
        {
          "internalType": "bytes32",
          "name": "ticker",
          "type": "bytes32"
        }
      ],
      "name": "withdraw",
      "outputs": [],
      "stateMutability": "nonpayable",
      "type": "function"
    },
    {
      "inputs": [
        {
          "internalType": "bytes32",
          "name": "ticker",
          "type": "bytes32"
        },
        {
          "internalType": "enum Dex.Side",
          "name": "side",
          "type": "uint8"
        }
      ],
      "name": "getOrderBook",
      "outputs": [
        {
          "components": [
            {
              "internalType": "uint256",
              "name": "id",
              "type": "uint256"
            },
            {
              "internalType": "address",
              "name": "trader",
              "type": "address"
            },
            {
              "internalType": "enum Dex.Side",
              "name": "side",
              "type": "uint8"
            },
            {
              "internalType": "bytes32",
              "name": "ticker",
              "type": "bytes32"
            },
            {
              "internalType": "uint256",
              "name": "amount",
              "type": "uint256"
            },
            {
              "internalType": "uint256",
              "name": "price",
              "type": "uint256"
            },
            {
              "internalType": "uint256",
              "name": "filled",
              "type": "uint256"
            }
          ],
          "internalType": "struct Dex.Order[]",
          "name": "",
          "type": "tuple[]"
        }
      ],
      "stateMutability": "view",
      "type": "function",
      "constant": true
    },
    {
      "inputs": [
        {
          "internalType": "enum Dex.Side",
          "name": "side",
          "type": "uint8"
        },
        {
          "internalType": "bytes32",
          "name": "ticker",
          "type": "bytes32"
        },
        {
          "internalType": "uint256",
          "name": "amount",
          "type": "uint256"
        },
        {
          "internalType": "uint256",
          "name": "price",
          "type": "uint256"
        }
      ],
      "name": "createLimitOrder",
      "outputs": [],
      "stateMutability": "nonpayable",
      "type": "function"
    },
    {
      "inputs": [
        {
          "internalType": "enum Dex.Side",
          "name": "side",
          "type": "uint8"
        },
        {
          "internalType": "bytes32",
          "name": "ticker",
          "type": "bytes32"
        },
        {
          "internalType": "uint256",
          "name": "amount",
          "type": "uint256"
        }
      ],
      "name": "createMarketOrder",
      "outputs": [],
      "stateMutability": "nonpayable",
      "type": "function"
    }
  ],
  "bytecode": "0x608060405260006004553480156200001657600080fd5b50620000376200002b6200003d60201b60201c565b6200004560201b60201c565b62000109565b600033905090565b60008060009054906101000a900473ffffffffffffffffffffffffffffffffffffffff169050816000806101000a81548173ffffffffffffffffffffffffffffffffffffffff021916908373ffffffffffffffffffffffffffffffffffffffff1602179055508173ffffffffffffffffffffffffffffffffffffffff168173ffffffffffffffffffffffffffffffffffffffff167f8be0079c531659141344cd1fd0a4f28419497f9722a3daafe3b4186f6b6457e060405160405180910390a35050565b6134b680620001196000396000f3fe6080604052600436106100e85760003560e01c80638da5cb5b1161008a578063a8d2021a11610059578063a8d2021a146102da578063ba58ea6814610303578063c9630cb014610340578063f2fde38b14610369576100e8565b80638da5cb5b146102205780639776aacf1461024b57806399ec2f1c146102745780639ead72221461029d576100e8565b8063439370b1116100c6578063439370b114610198578063667cb4ba146101a25780636f3b62f9146101e0578063715018a614610209576100e8565b80630bb431b6146100ed5780631f14df69146101305780632a58b3301461016d575b600080fd5b3480156100f957600080fd5b50610114600480360381019061010f9190612945565b610392565b6040516101279796959493929190612a6e565b60405180910390f35b34801561013c57600080fd5b5061015760048036038101906101529190612b09565b61042b565b6040516101649190612b49565b60405180910390f35b34801561017957600080fd5b50610182610450565b60405161018f9190612b49565b60405180910390f35b6101a0610456565b005b3480156101ae57600080fd5b506101c960048036038101906101c49190612b64565b61054f565b6040516101d7929190612b91565b60405180910390f35b3480156101ec57600080fd5b5061020760048036038101906102029190612bdf565b610593565b005b34801561021557600080fd5b5061021e610fda565b005b34801561022c57600080fd5b50610235611062565b6040516102429190612c46565b60405180910390f35b34801561025757600080fd5b50610272600480360381019061026d9190612c61565b61108b565b005b34801561028057600080fd5b5061029b60048036038101906102969190612ca1565b6111c6565b005b3480156102a957600080fd5b506102c460048036038101906102bf9190612cf4565b61206e565b6040516102d19190612d21565b60405180910390f35b3480156102e657600080fd5b5061030160048036038101906102fc9190612d3c565b612092565b005b34801561030f57600080fd5b5061032a60048036038101906103259190612d7c565b61234c565b6040516103379190612f35565b60405180910390f35b34801561034c57600080fd5b5061036760048036038101906103629190612d3c565b6124a5565b005b34801561037557600080fd5b50610390600480360381019061038b9190612f57565b6126ce565b005b600560205282600052604060002060205281600052604060002081815481106103ba57600080fd5b906000526020600020906006020160009250925050508060000154908060010160009054906101000a900473ffffffffffffffffffffffffffffffffffffffff16908060010160149054906101000a900460ff16908060020154908060030154908060040154908060050154905087565b6003602052816000526040600020602052806000526040600020600091509150505481565b60045481565b6104d934600360003373ffffffffffffffffffffffffffffffffffffffff1673ffffffffffffffffffffffffffffffffffffffff16815260200190815260200160002060007f45544800000000000000000000000000000000000000000000000000000000008152602001908152602001600020546127c690919063ffffffff16565b600360003373ffffffffffffffffffffffffffffffffffffffff1673ffffffffffffffffffffffffffffffffffffffff16815260200190815260200160002060007f4554480000000000000000000000000000000000000000000000000000000000815260200190815260200160002081905550565b60016020528060005260406000206000915090508060000154908060010160009054906101000a900473ffffffffffffffffffffffffffffffffffffffff16905082565b600060018111156105a7576105a66129e8565b5b8460018111156105ba576105b96129e8565b5b1415610654576105d381836127dc90919063ffffffff16565b600360003373ffffffffffffffffffffffffffffffffffffffff1673ffffffffffffffffffffffffffffffffffffffff16815260200190815260200160002060007f4554480000000000000000000000000000000000000000000000000000000000815260200190815260200160002054101561064f57600080fd5b6106df565b600180811115610667576106666129e8565b5b84600181111561067a576106796129e8565b5b14156106de5781600360003373ffffffffffffffffffffffffffffffffffffffff1673ffffffffffffffffffffffffffffffffffffffff16815260200190815260200160002060008581526020019081526020016000205410156106dd57600080fd5b5b5b6000600560008581526020019081526020016000206000866001811115610709576107086129e8565b5b81526020019081526020016000209050806040518060e0016040528060045481526020013373ffffffffffffffffffffffffffffffffffffffff16815260200187600181111561075c5761075b6129e8565b5b8152602001868152602001858152602001848152602001600081525090806001815401808255809150506001900390600052602060002090600602016000909190919091506000820151816000015560208201518160010160006101000a81548173ffffffffffffffffffffffffffffffffffffffff021916908373ffffffffffffffffffffffffffffffffffffffff16021790555060408201518160010160146101000a81548160ff0219169083600181111561081d5761081c6129e8565b5b0217905550606082015181600201556080820151816003015560a0820151816004015560c082015181600501555050600080828054905011610860576000610872565b600182805490506108719190612fb3565b5b905060006001811115610888576108876129e8565b5b86600181111561089b5761089a6129e8565b5b1415610c19575b6000811115610c14578181815481106108be576108bd612fe7565b5b906000526020600020906006020160040154826001836108de9190612fb3565b815481106108ef576108ee612fe7565b5b906000526020600020906006020160040154111561090c57610c14565b60008260018361091c9190612fb3565b8154811061092d5761092c612fe7565b5b90600052602060002090600602016040518060e0016040529081600082015481526020016001820160009054906101000a900473ffffffffffffffffffffffffffffffffffffffff1673ffffffffffffffffffffffffffffffffffffffff1673ffffffffffffffffffffffffffffffffffffffff1681526020016001820160149054906101000a900460ff1660018111156109cb576109ca6129e8565b5b60018111156109dd576109dc6129e8565b5b81526020016002820154815260200160038201548152602001600482015481526020016005820154815250509050828281548110610a1e57610a1d612fe7565b5b906000526020600020906006020183600184610a3a9190612fb3565b81548110610a4b57610a4a612fe7565b5b9060005260206000209060060201600082015481600001556001820160009054906101000a900473ffffffffffffffffffffffffffffffffffffffff168160010160006101000a81548173ffffffffffffffffffffffffffffffffffffffff021916908373ffffffffffffffffffffffffffffffffffffffff1602179055506001820160149054906101000a900460ff168160010160146101000a81548160ff02191690836001811115610b0257610b016129e8565b5b02179055506002820154816002015560038201548160030155600482015481600401556005820154816005015590505080838381548110610b4657610b45612fe7565b5b90600052602060002090600602016000820151816000015560208201518160010160006101000a81548173ffffffffffffffffffffffffffffffffffffffff021916908373ffffffffffffffffffffffffffffffffffffffff16021790555060408201518160010160146101000a81548160ff02191690836001811115610bd057610bcf6129e8565b5b0217905550606082015181600201556080820151816003015560a0820151816004015560c082015181600501559050508180610c0b90613016565b925050506108a2565b610fba565b600180811115610c2c57610c2b6129e8565b5b866001811115610c3f57610c3e6129e8565b5b1415610fb9575b6000811115610fb857818181548110610c6257610c61612fe7565b5b90600052602060002090600602016004015482600183610c829190612fb3565b81548110610c9357610c92612fe7565b5b9060005260206000209060060201600401541015610cb057610fb8565b600082600183610cc09190612fb3565b81548110610cd157610cd0612fe7565b5b90600052602060002090600602016040518060e0016040529081600082015481526020016001820160009054906101000a900473ffffffffffffffffffffffffffffffffffffffff1673ffffffffffffffffffffffffffffffffffffffff1673ffffffffffffffffffffffffffffffffffffffff1681526020016001820160149054906101000a900460ff166001811115610d6f57610d6e6129e8565b5b6001811115610d8157610d806129e8565b5b81526020016002820154815260200160038201548152602001600482015481526020016005820154815250509050828281548110610dc257610dc1612fe7565b5b906000526020600020906006020183600184610dde9190612fb3565b81548110610def57610dee612fe7565b5b9060005260206000209060060201600082015481600001556001820160009054906101000a900473ffffffffffffffffffffffffffffffffffffffff168160010160006101000a81548173ffffffffffffffffffffffffffffffffffffffff021916908373ffffffffffffffffffffffffffffffffffffffff1602179055506001820160149054906101000a900460ff168160010160146101000a81548160ff02191690836001811115610ea657610ea56129e8565b5b02179055506002820154816002015560038201548160030155600482015481600401556005820154816005015590505080838381548110610eea57610ee9612fe7565b5b90600052602060002090600602016000820151816000015560208201518160010160006101000a81548173ffffffffffffffffffffffffffffffffffffffff021916908373ffffffffffffffffffffffffffffffffffffffff16021790555060408201518160010160146101000a81548160ff02191690836001811115610f7457610f736129e8565b5b0217905550606082015181600201556080820151816003015560a0820151816004015560c082015181600501559050508180610faf90613016565b92505050610c46565b5b5b60046000815480929190610fcd90613040565b9190505550505050505050565b610fe26127f2565b73ffffffffffffffffffffffffffffffffffffffff16611000611062565b73ffffffffffffffffffffffffffffffffffffffff1614611056576040517f08c379a000000000000000000000000000000000000000000000000000000000815260040161104d906130e6565b60405180910390fd5b61106060006127fa565b565b60008060009054906101000a900473ffffffffffffffffffffffffffffffffffffffff16905090565b6110936127f2565b73ffffffffffffffffffffffffffffffffffffffff166110b1611062565b73ffffffffffffffffffffffffffffffffffffffff1614611107576040517f08c379a00000000000000000000000000000000000000000000000000000000081526004016110fe906130e6565b60405180910390fd5b60405180604001604052808381526020018273ffffffffffffffffffffffffffffffffffffffff16815250600160008481526020019081526020016000206000820151816000015560208201518160010160006101000a81548173ffffffffffffffffffffffffffffffffffffffff021916908373ffffffffffffffffffffffffffffffffffffffff16021790555090505060028290806001815401808255809150506001900390600052602060002001600090919091909150555050565b6001808111156111d9576111d86129e8565b5b8360018111156111ec576111eb6129e8565b5b141561128a5780600360003373ffffffffffffffffffffffffffffffffffffffff1673ffffffffffffffffffffffffffffffffffffffff1681526020019081526020016000206000848152602001908152602001600020541015611285576040517f08c379a000000000000000000000000000000000000000000000000000000000815260040161127c90613152565b60405180910390fd5b61128b565b5b60008060018111156112a05761129f6129e8565b5b8460018111156112b3576112b26129e8565b5b14156112c257600190506112c7565b600090505b600060056000858152602001908152602001600020600083815260200190815260200160002090506000805b82805490508110801561130557508482105b15611e1a57600061131f83876128be90919063ffffffff16565b9050600061137e85848154811061133957611338612fe7565b5b90600052602060002090600602016005015486858154811061135e5761135d612fe7565b5b9060005260206000209060060201600301546128be90919063ffffffff16565b905060008282111561139257829050611396565b8190505b6113a981866127c690919063ffffffff16565b94506113e2818786815481106113c2576113c1612fe7565b5b9060005260206000209060060201600501546127c690919063ffffffff16565b8685815481106113f5576113f4612fe7565b5b906000526020600020906006020160050181905550600061144387868154811061142257611421612fe7565b5b906000526020600020906006020160040154836127dc90919063ffffffff16565b905060006001811115611459576114586129e8565b5b8b600181111561146c5761146b6129e8565b5b1415611996576114a987868154811061148857611487612fe7565b5b906000526020600020906006020160040154836127dc90919063ffffffff16565b600360003373ffffffffffffffffffffffffffffffffffffffff1673ffffffffffffffffffffffffffffffffffffffff16815260200190815260200160002060007f4554480000000000000000000000000000000000000000000000000000000000815260200190815260200160002054101561152557600080fd5b61158882600360003373ffffffffffffffffffffffffffffffffffffffff1673ffffffffffffffffffffffffffffffffffffffff16815260200190815260200160002060008d8152602001908152602001600020546127c690919063ffffffff16565b600360003373ffffffffffffffffffffffffffffffffffffffff1673ffffffffffffffffffffffffffffffffffffffff16815260200190815260200160002060008c81526020019081526020016000208190555061165f81600360003373ffffffffffffffffffffffffffffffffffffffff1673ffffffffffffffffffffffffffffffffffffffff16815260200190815260200160002060007f45544800000000000000000000000000000000000000000000000000000000008152602001908152602001600020546128be90919063ffffffff16565b600360003373ffffffffffffffffffffffffffffffffffffffff1673ffffffffffffffffffffffffffffffffffffffff16815260200190815260200160002060007f455448000000000000000000000000000000000000000000000000000000000081526020019081526020016000208190555061177a82600360008a89815481106116ee576116ed612fe7565b5b906000526020600020906006020160010160009054906101000a900473ffffffffffffffffffffffffffffffffffffffff1673ffffffffffffffffffffffffffffffffffffffff1673ffffffffffffffffffffffffffffffffffffffff16815260200190815260200160002060008d8152602001908152602001600020546128be90919063ffffffff16565b6003600089888154811061179157611790612fe7565b5b906000526020600020906006020160010160009054906101000a900473ffffffffffffffffffffffffffffffffffffffff1673ffffffffffffffffffffffffffffffffffffffff1673ffffffffffffffffffffffffffffffffffffffff16815260200190815260200160002060008c8152602001908152602001600020819055506118d981600360008a898154811061182d5761182c612fe7565b5b906000526020600020906006020160010160009054906101000a900473ffffffffffffffffffffffffffffffffffffffff1673ffffffffffffffffffffffffffffffffffffffff1673ffffffffffffffffffffffffffffffffffffffff16815260200190815260200160002060007f45544800000000000000000000000000000000000000000000000000000000008152602001908152602001600020546127c690919063ffffffff16565b600360008988815481106118f0576118ef612fe7565b5b906000526020600020906006020160010160009054906101000a900473ffffffffffffffffffffffffffffffffffffffff1673ffffffffffffffffffffffffffffffffffffffff1673ffffffffffffffffffffffffffffffffffffffff16815260200190815260200160002060007f4554480000000000000000000000000000000000000000000000000000000000815260200190815260200160002081905550611e03565b6119f982600360003373ffffffffffffffffffffffffffffffffffffffff1673ffffffffffffffffffffffffffffffffffffffff16815260200190815260200160002060008d8152602001908152602001600020546128be90919063ffffffff16565b600360003373ffffffffffffffffffffffffffffffffffffffff1673ffffffffffffffffffffffffffffffffffffffff16815260200190815260200160002060008c815260200190815260200160002081905550611ad081600360003373ffffffffffffffffffffffffffffffffffffffff1673ffffffffffffffffffffffffffffffffffffffff16815260200190815260200160002060007f45544800000000000000000000000000000000000000000000000000000000008152602001908152602001600020546127c690919063ffffffff16565b600360003373ffffffffffffffffffffffffffffffffffffffff1673ffffffffffffffffffffffffffffffffffffffff16815260200190815260200160002060007f4554480000000000000000000000000000000000000000000000000000000000815260200190815260200160002081905550611beb82600360008a8981548110611b5f57611b5e612fe7565b5b906000526020600020906006020160010160009054906101000a900473ffffffffffffffffffffffffffffffffffffffff1673ffffffffffffffffffffffffffffffffffffffff1673ffffffffffffffffffffffffffffffffffffffff16815260200190815260200160002060008d8152602001908152602001600020546127c690919063ffffffff16565b60036000898881548110611c0257611c01612fe7565b5b906000526020600020906006020160010160009054906101000a900473ffffffffffffffffffffffffffffffffffffffff1673ffffffffffffffffffffffffffffffffffffffff1673ffffffffffffffffffffffffffffffffffffffff16815260200190815260200160002060008c815260200190815260200160002081905550611d4a81600360008a8981548110611c9e57611c9d612fe7565b5b906000526020600020906006020160010160009054906101000a900473ffffffffffffffffffffffffffffffffffffffff1673ffffffffffffffffffffffffffffffffffffffff1673ffffffffffffffffffffffffffffffffffffffff16815260200190815260200160002060007f45544800000000000000000000000000000000000000000000000000000000008152602001908152602001600020546128be90919063ffffffff16565b60036000898881548110611d6157611d60612fe7565b5b906000526020600020906006020160010160009054906101000a900473ffffffffffffffffffffffffffffffffffffffff1673ffffffffffffffffffffffffffffffffffffffff1673ffffffffffffffffffffffffffffffffffffffff16815260200190815260200160002060007f45544800000000000000000000000000000000000000000000000000000000008152602001908152602001600020819055505b505050508080611e1290613040565b9150506112f3565b505b60008280549050118015611e79575081600081548110611e3f57611e3e612fe7565b5b90600052602060002090600602016003015482600081548110611e6557611e64612fe7565b5b906000526020600020906006020160050154145b156120665760005b60018380549050611e929190612fb3565b811015611fd35782600182611ea79190613172565b81548110611eb857611eb7612fe7565b5b9060005260206000209060060201838281548110611ed957611ed8612fe7565b5b9060005260206000209060060201600082015481600001556001820160009054906101000a900473ffffffffffffffffffffffffffffffffffffffff168160010160006101000a81548173ffffffffffffffffffffffffffffffffffffffff021916908373ffffffffffffffffffffffffffffffffffffffff1602179055506001820160149054906101000a900460ff168160010160146101000a81548160ff02191690836001811115611f9057611f8f6129e8565b5b0217905550600282015481600201556003820154816003015560048201548160040155600582015481600501559050508080611fcb90613040565b915050611e81565b5081805480611fe557611fe46131c8565b5b60019003818190600052602060002090600602016000808201600090556001820160006101000a81549073ffffffffffffffffffffffffffffffffffffffff02191690556001820160146101000a81549060ff0219169055600282016000905560038201600090556004820160009055600582016000905550509055611e1c565b505050505050565b6002818154811061207e57600080fd5b906000526020600020016000915090505481565b80600073ffffffffffffffffffffffffffffffffffffffff166001600083815260200190815260200160002060010160009054906101000a900473ffffffffffffffffffffffffffffffffffffffff1673ffffffffffffffffffffffffffffffffffffffff161415612139576040517f08c379a000000000000000000000000000000000000000000000000000000000815260040161213090613243565b60405180910390fd5b82600360003373ffffffffffffffffffffffffffffffffffffffff1673ffffffffffffffffffffffffffffffffffffffff16815260200190815260200160002060008481526020019081526020016000205410156121cc576040517f08c379a00000000000000000000000000000000000000000000000000000000081526004016121c3906132af565b60405180910390fd5b61222f83600360003373ffffffffffffffffffffffffffffffffffffffff1673ffffffffffffffffffffffffffffffffffffffff1681526020019081526020016000206000858152602001908152602001600020546128be90919063ffffffff16565b600360003373ffffffffffffffffffffffffffffffffffffffff1673ffffffffffffffffffffffffffffffffffffffff1681526020019081526020016000206000848152602001908152602001600020819055506001600083815260200190815260200160002060010160009054906101000a900473ffffffffffffffffffffffffffffffffffffffff1673ffffffffffffffffffffffffffffffffffffffff1663a9059cbb33856040518363ffffffff1660e01b81526004016122f49291906132cf565b602060405180830381600087803b15801561230e57600080fd5b505af1158015612322573d6000803e3d6000fd5b505050506040513d601f19601f820116820180604052508101906123469190613330565b50505050565b6060600560008481526020019081526020016000206000836001811115612376576123756129e8565b5b8152602001908152602001600020805480602002602001604051908101604052809291908181526020016000905b8282101561249957838290600052602060002090600602016040518060e0016040529081600082015481526020016001820160009054906101000a900473ffffffffffffffffffffffffffffffffffffffff1673ffffffffffffffffffffffffffffffffffffffff1673ffffffffffffffffffffffffffffffffffffffff1681526020016001820160149054906101000a900460ff16600181111561244c5761244b6129e8565b5b600181111561245e5761245d6129e8565b5b8152602001600282015481526020016003820154815260200160048201548152602001600582015481525050815260200190600101906123a4565b50505050905092915050565b80600073ffffffffffffffffffffffffffffffffffffffff166001600083815260200190815260200160002060010160009054906101000a900473ffffffffffffffffffffffffffffffffffffffff1673ffffffffffffffffffffffffffffffffffffffff16141561254c576040517f08c379a000000000000000000000000000000000000000000000000000000000815260040161254390613243565b60405180910390fd5b6001600083815260200190815260200160002060010160009054906101000a900473ffffffffffffffffffffffffffffffffffffffff1673ffffffffffffffffffffffffffffffffffffffff166323b872dd3330866040518463ffffffff1660e01b81526004016125bf9392919061335d565b602060405180830381600087803b1580156125d957600080fd5b505af11580156125ed573d6000803e3d6000fd5b505050506040513d601f19601f820116820180604052508101906126119190613330565b5061267583600360003373ffffffffffffffffffffffffffffffffffffffff1673ffffffffffffffffffffffffffffffffffffffff1681526020019081526020016000206000858152602001908152602001600020546127c690919063ffffffff16565b600360003373ffffffffffffffffffffffffffffffffffffffff1673ffffffffffffffffffffffffffffffffffffffff168152602001908152602001600020600084815260200190815260200160002081905550505050565b6126d66127f2565b73ffffffffffffffffffffffffffffffffffffffff166126f4611062565b73ffffffffffffffffffffffffffffffffffffffff161461274a576040517f08c379a0000000000000000000000000000000000000000000000000000000008152600401612741906130e6565b60405180910390fd5b600073ffffffffffffffffffffffffffffffffffffffff168173ffffffffffffffffffffffffffffffffffffffff1614156127ba576040517f08c379a00000000000000000000000000000000000000000000000000000000081526004016127b190613406565b60405180910390fd5b6127c3816127fa565b50565b600081836127d49190613172565b905092915050565b600081836127ea9190613426565b905092915050565b600033905090565b60008060009054906101000a900473ffffffffffffffffffffffffffffffffffffffff169050816000806101000a81548173ffffffffffffffffffffffffffffffffffffffff021916908373ffffffffffffffffffffffffffffffffffffffff1602179055508173ffffffffffffffffffffffffffffffffffffffff168173ffffffffffffffffffffffffffffffffffffffff167f8be0079c531659141344cd1fd0a4f28419497f9722a3daafe3b4186f6b6457e060405160405180910390a35050565b600081836128cc9190612fb3565b905092915050565b600080fd5b6000819050919050565b6128ec816128d9565b81146128f757600080fd5b50565b600081359050612909816128e3565b92915050565b6000819050919050565b6129228161290f565b811461292d57600080fd5b50565b60008135905061293f81612919565b92915050565b60008060006060848603121561295e5761295d6128d4565b5b600061296c868287016128fa565b935050602061297d86828701612930565b925050604061298e86828701612930565b9150509250925092565b6129a18161290f565b82525050565b600073ffffffffffffffffffffffffffffffffffffffff82169050919050565b60006129d2826129a7565b9050919050565b6129e2816129c7565b82525050565b7f4e487b7100000000000000000000000000000000000000000000000000000000600052602160045260246000fd5b60028110612a2857612a276129e8565b5b50565b6000819050612a3982612a17565b919050565b6000612a4982612a2b565b9050919050565b612a5981612a3e565b82525050565b612a68816128d9565b82525050565b600060e082019050612a83600083018a612998565b612a9060208301896129d9565b612a9d6040830188612a50565b612aaa6060830187612a5f565b612ab76080830186612998565b612ac460a0830185612998565b612ad160c0830184612998565b98975050505050505050565b612ae6816129c7565b8114612af157600080fd5b50565b600081359050612b0381612add565b92915050565b60008060408385031215612b2057612b1f6128d4565b5b6000612b2e85828601612af4565b9250506020612b3f858286016128fa565b9150509250929050565b6000602082019050612b5e6000830184612998565b92915050565b600060208284031215612b7a57612b796128d4565b5b6000612b88848285016128fa565b91505092915050565b6000604082019050612ba66000830185612a5f565b612bb360208301846129d9565b9392505050565b60028110612bc757600080fd5b50565b600081359050612bd981612bba565b92915050565b60008060008060808587031215612bf957612bf86128d4565b5b6000612c0787828801612bca565b9450506020612c18878288016128fa565b9350506040612c2987828801612930565b9250506060612c3a87828801612930565b91505092959194509250565b6000602082019050612c5b60008301846129d9565b92915050565b60008060408385031215612c7857612c776128d4565b5b6000612c86858286016128fa565b9250506020612c9785828601612af4565b9150509250929050565b600080600060608486031215612cba57612cb96128d4565b5b6000612cc886828701612bca565b9350506020612cd9868287016128fa565b9250506040612cea86828701612930565b9150509250925092565b600060208284031215612d0a57612d096128d4565b5b6000612d1884828501612930565b91505092915050565b6000602082019050612d366000830184612a5f565b92915050565b60008060408385031215612d5357612d526128d4565b5b6000612d6185828601612930565b9250506020612d72858286016128fa565b9150509250929050565b60008060408385031215612d9357612d926128d4565b5b6000612da1858286016128fa565b9250506020612db285828601612bca565b9150509250929050565b600081519050919050565b600082825260208201905092915050565b6000819050602082019050919050565b612df18161290f565b82525050565b612e00816129c7565b82525050565b612e0f81612a3e565b82525050565b612e1e816128d9565b82525050565b60e082016000820151612e3a6000850182612de8565b506020820151612e4d6020850182612df7565b506040820151612e606040850182612e06565b506060820151612e736060850182612e15565b506080820151612e866080850182612de8565b5060a0820151612e9960a0850182612de8565b5060c0820151612eac60c0850182612de8565b50505050565b6000612ebe8383612e24565b60e08301905092915050565b6000602082019050919050565b6000612ee282612dbc565b612eec8185612dc7565b9350612ef783612dd8565b8060005b83811015612f28578151612f0f8882612eb2565b9750612f1a83612eca565b925050600181019050612efb565b5085935050505092915050565b60006020820190508181036000830152612f4f8184612ed7565b905092915050565b600060208284031215612f6d57612f6c6128d4565b5b6000612f7b84828501612af4565b91505092915050565b7f4e487b7100000000000000000000000000000000000000000000000000000000600052601160045260246000fd5b6000612fbe8261290f565b9150612fc98361290f565b925082821015612fdc57612fdb612f84565b5b828203905092915050565b7f4e487b7100000000000000000000000000000000000000000000000000000000600052603260045260246000fd5b60006130218261290f565b9150600082141561303557613034612f84565b5b600182039050919050565b600061304b8261290f565b91507fffffffffffffffffffffffffffffffffffffffffffffffffffffffffffffffff82141561307e5761307d612f84565b5b600182019050919050565b600082825260208201905092915050565b7f4f776e61626c653a2063616c6c6572206973206e6f7420746865206f776e6572600082015250565b60006130d0602083613089565b91506130db8261309a565b602082019050919050565b600060208201905081810360008301526130ff816130c3565b9050919050565b7f496e737566666963656e742062616c616e636500000000000000000000000000600082015250565b600061313c601383613089565b915061314782613106565b602082019050919050565b6000602082019050818103600083015261316b8161312f565b9050919050565b600061317d8261290f565b91506131888361290f565b9250827fffffffffffffffffffffffffffffffffffffffffffffffffffffffffffffffff038211156131bd576131bc612f84565b5b828201905092915050565b7f4e487b7100000000000000000000000000000000000000000000000000000000600052603160045260246000fd5b7f546f6b656e20646f6573206e6f74206578697374000000000000000000000000600082015250565b600061322d601483613089565b9150613238826131f7565b602082019050919050565b6000602082019050818103600083015261325c81613220565b9050919050565b7f42616c616e6365206e6f742073756666696369656e7400000000000000000000600082015250565b6000613299601683613089565b91506132a482613263565b602082019050919050565b600060208201905081810360008301526132c88161328c565b9050919050565b60006040820190506132e460008301856129d9565b6132f16020830184612998565b9392505050565b60008115159050919050565b61330d816132f8565b811461331857600080fd5b50565b60008151905061332a81613304565b92915050565b600060208284031215613346576133456128d4565b5b60006133548482850161331b565b91505092915050565b600060608201905061337260008301866129d9565b61337f60208301856129d9565b61338c6040830184612998565b949350505050565b7f4f776e61626c653a206e6577206f776e657220697320746865207a65726f206160008201527f6464726573730000000000000000000000000000000000000000000000000000602082015250565b60006133f0602683613089565b91506133fb82613394565b604082019050919050565b6000602082019050818103600083015261341f816133e3565b9050919050565b60006134318261290f565b915061343c8361290f565b9250817fffffffffffffffffffffffffffffffffffffffffffffffffffffffffffffffff048311821515161561347557613474612f84565b5b82820290509291505056fea2646970667358221220b2875f18041f8b41990f2050d482fa1b5f2ec9e2f71522ea1ac6357833f9753764736f6c63430008080033",
  "immutableReferences": {},
  "source": "// SPDX-License-Identifier: MIT\r\n\r\npragma solidity 0.8.8;\r\npragma experimental ABIEncoderV2;\r\n\r\nimport \"./wallet.sol\";\r\n\r\ncontract Dex is Wallet{\r\n    using SafeMath for uint256;\r\n\r\n    enum Side{\r\n        BUY,\r\n        SELL\r\n    }\r\n\r\n    struct Order {\r\n        uint id;\r\n        address trader;\r\n        Side side;\r\n        bytes32 ticker;\r\n        uint amount;\r\n        uint price;\r\n        uint filled;\r\n    }\r\n\r\n    uint public nextOrderId = 0;\r\n\r\n    mapping(bytes32 => mapping(uint => Order[])) public orderBook;\r\n\r\n    function getOrderBook(bytes32 ticker, Side side) view public returns(Order[] memory) {\r\n        return orderBook[ticker][uint(side)];\r\n    }\r\n\r\n    function createLimitOrder(Side side, bytes32 ticker, uint amount, uint price) public {\r\n        if (side == Side.BUY) {\r\n            require(balances[msg.sender][\"ETH\"] >= amount.mul(price));\r\n        }\r\n        else if (side == Side.SELL) {\r\n            require(balances[msg.sender][ticker] >= amount);\r\n        }\r\n\r\n        Order[] storage orders = orderBook[ticker][uint(side)];\r\n        orders.push(\r\n            Order(nextOrderId, msg.sender, side, ticker, amount, price, 0)\r\n            );\r\n        \r\n        //Buble sort\r\n        uint i = orders.length > 0 ? orders.length - 1 : 0;\r\n\r\n        if(side == Side.BUY) {\r\n            while(i > 0){\r\n                if(orders[i-1].price > orders[i].price){\r\n                    break;\r\n                }\r\n                Order memory orderToMove = orders[i-1];\r\n                orders[i-1] = orders[i];\r\n                orders[i] = orderToMove;\r\n                i--;\r\n            }\r\n        } else if(side == Side.SELL) {\r\n            while(i > 0){\r\n                if(orders[i-1].price < orders[i].price){\r\n                    break;\r\n                }\r\n                Order memory orderToMove = orders[i-1];\r\n                orders[i-1] = orders[i];\r\n                orders[i] = orderToMove;\r\n                i--;\r\n            }\r\n        }\r\n\r\n        nextOrderId++;\r\n    }\r\n\r\n    function createMarketOrder(Side side, bytes32 ticker, uint amount) public {\r\n        if (side == Side.SELL) {\r\n        require(balances[msg.sender][ticker] >= amount, \"Insufficent balance\");\r\n            \r\n        } else {\r\n            \r\n        }\r\n\r\n        uint orderBookSide;\r\n        if (side == Side.BUY) {\r\n            orderBookSide = 1;\r\n        } else {\r\n            orderBookSide = 0;            \r\n        }\r\n        Order[] storage orders = orderBook[ticker][orderBookSide];\r\n        \r\n        uint totalFilled = 0;\r\n\r\n        for (uint256 i = 0; i < orders.length && totalFilled < amount; i++) {\r\n            uint leftToFill = amount.sub(totalFilled);\r\n            uint availableToFill = orders[i].amount.sub(orders[i].filled);\r\n            uint filled = 0;\r\n\r\n            if (availableToFill > leftToFill) {\r\n                filled = leftToFill;                \r\n            } else {\r\n                filled = availableToFill;\r\n            }\r\n\r\n            totalFilled = totalFilled.add(filled);\r\n            orders[i].filled = orders[i].filled.add(filled);\r\n            uint cost = filled.mul(orders[i].price);\r\n\r\n            if(side == Side.BUY){\r\n                require(balances[msg.sender][\"ETH\"] >= filled.mul(orders[i].price));\r\n                balances[msg.sender][ticker] = balances[msg.sender][ticker].add(filled);\r\n                balances[msg.sender][\"ETH\"] = balances[msg.sender][\"ETH\"].sub(cost);\r\n\r\n                balances[orders[i].trader][ticker] = balances[orders[i].trader][ticker].sub(filled);\r\n                balances[orders[i].trader][\"ETH\"] = balances[orders[i].trader][\"ETH\"].add(cost);\r\n            } else {\r\n                balances[msg.sender][ticker] = balances[msg.sender][ticker].sub(filled);\r\n                balances[msg.sender][\"ETH\"] = balances[msg.sender][\"ETH\"].add(cost);\r\n                \r\n                balances[orders[i].trader][ticker] = balances[orders[i].trader][ticker].add(filled);\r\n                balances[orders[i].trader][\"ETH\"] = balances[orders[i].trader][\"ETH\"].sub(cost);\r\n            }\r\n        }\r\n\r\n        while ( orders.length > 0 && orders[0].filled == orders[0].amount){\r\n            \r\n            for (uint256 i = 0; i < orders.length - 1; i++) {\r\n                orders[i] = orders[i + 1];\r\n            }\r\n            orders.pop();\r\n        }\r\n\r\n\r\n        // for (uint256 i = 0; i < array.length; i++) {\r\n            \r\n        // }\r\n    }\r\n}\r\n\r\n",
  "sourcePath": "E:\\dishonored 2\\Blockchain\\Project\\blockchain\\Building Dex Moralis\\contracts\\dex.sol",
  "compiler": {
    "name": "solc",
    "version": "0.8.8+commit.dddeac2f.Emscripten.clang"
  },
  "schemaVersion": "3.4.4",
  "updatedAt": "2022-06-16T20:43:37.599Z",
  "networkType": "ethereum",
  "devdoc": {
    "kind": "dev",
    "methods": {
      "owner()": {
        "details": "Returns the address of the current owner."
      },
      "renounceOwnership()": {
        "details": "Leaves the contract without owner. It will not be possible to call `onlyOwner` functions anymore. Can only be called by the current owner. NOTE: Renouncing ownership will leave the contract without an owner, thereby removing any functionality that is only available to the owner."
      },
      "transferOwnership(address)": {
        "details": "Transfers ownership of the contract to a new account (`newOwner`). Can only be called by the current owner."
      }
    },
    "version": 1
  },
  "userdoc": {
    "kind": "user",
    "methods": {},
    "version": 1
  }
}