{
  "contractName": "Dex",
  "abi": [
    {
      "anonymous": false,
      "inputs": [
        {
          "indexed": true,
          "internalType": "address",
          "name": "previousOwner",
          "type": "address"
        },
        {
          "indexed": true,
          "internalType": "address",
          "name": "newOwner",
          "type": "address"
        }
      ],
      "name": "OwnershipTransferred",
      "type": "event"
    },
    {
      "inputs": [
        {
          "internalType": "bytes32",
          "name": "ticker",
          "type": "bytes32"
        },
        {
          "internalType": "address",
          "name": "tokenAddress",
          "type": "address"
        }
      ],
      "name": "addToken",
      "outputs": [],
      "stateMutability": "nonpayable",
      "type": "function"
    },
    {
      "inputs": [
        {
          "internalType": "address",
          "name": "",
          "type": "address"
        },
        {
          "internalType": "bytes32",
          "name": "",
          "type": "bytes32"
        }
      ],
      "name": "balances",
      "outputs": [
        {
          "internalType": "uint256",
          "name": "",
          "type": "uint256"
        }
      ],
      "stateMutability": "view",
      "type": "function",
      "constant": true
    },
    {
      "inputs": [
        {
          "internalType": "uint256",
          "name": "amount",
          "type": "uint256"
        },
        {
          "internalType": "bytes32",
          "name": "ticker",
          "type": "bytes32"
        }
      ],
      "name": "deposit",
      "outputs": [],
      "stateMutability": "nonpayable",
      "type": "function"
    },
    {
      "inputs": [],
      "name": "depositEth",
      "outputs": [],
      "stateMutability": "payable",
      "type": "function",
      "payable": true
    },
    {
      "inputs": [
        {
          "internalType": "bytes32",
          "name": "",
          "type": "bytes32"
        },
        {
          "internalType": "uint256",
          "name": "",
          "type": "uint256"
        },
        {
          "internalType": "uint256",
          "name": "",
          "type": "uint256"
        }
      ],
      "name": "orderBook",
      "outputs": [
        {
          "internalType": "uint256",
          "name": "id",
          "type": "uint256"
        },
        {
          "internalType": "address",
          "name": "trader",
          "type": "address"
        },
        {
          "internalType": "enum Dex.Side",
          "name": "side",
          "type": "uint8"
        },
        {
          "internalType": "bytes32",
          "name": "ticker",
          "type": "bytes32"
        },
        {
          "internalType": "uint256",
          "name": "amount",
          "type": "uint256"
        },
        {
          "internalType": "uint256",
          "name": "price",
          "type": "uint256"
        }
      ],
      "stateMutability": "view",
      "type": "function",
      "constant": true
    },
    {
      "inputs": [],
      "name": "owner",
      "outputs": [
        {
          "internalType": "address",
          "name": "",
          "type": "address"
        }
      ],
      "stateMutability": "view",
      "type": "function",
      "constant": true
    },
    {
      "inputs": [],
      "name": "renounceOwnership",
      "outputs": [],
      "stateMutability": "nonpayable",
      "type": "function"
    },
    {
      "inputs": [
        {
          "internalType": "uint256",
          "name": "",
          "type": "uint256"
        }
      ],
      "name": "tokenList",
      "outputs": [
        {
          "internalType": "bytes32",
          "name": "",
          "type": "bytes32"
        }
      ],
      "stateMutability": "view",
      "type": "function",
      "constant": true
    },
    {
      "inputs": [
        {
          "internalType": "bytes32",
          "name": "",
          "type": "bytes32"
        }
      ],
      "name": "tokenMapping",
      "outputs": [
        {
          "internalType": "bytes32",
          "name": "ticker",
          "type": "bytes32"
        },
        {
          "internalType": "address",
          "name": "tokenAddress",
          "type": "address"
        }
      ],
      "stateMutability": "view",
      "type": "function",
      "constant": true
    },
    {
      "inputs": [
        {
          "internalType": "address",
          "name": "newOwner",
          "type": "address"
        }
      ],
      "name": "transferOwnership",
      "outputs": [],
      "stateMutability": "nonpayable",
      "type": "function"
    },
    {
      "inputs": [
        {
          "internalType": "uint256",
          "name": "amount",
          "type": "uint256"
        },
        {
          "internalType": "bytes32",
          "name": "ticker",
          "type": "bytes32"
        }
      ],
      "name": "withdraw",
      "outputs": [],
      "stateMutability": "nonpayable",
      "type": "function"
    },
    {
      "inputs": [
        {
          "internalType": "bytes32",
          "name": "ticker",
          "type": "bytes32"
        },
        {
          "internalType": "enum Dex.Side",
          "name": "side",
          "type": "uint8"
        }
      ],
      "name": "getOrderBook",
      "outputs": [
        {
          "components": [
            {
              "internalType": "uint256",
              "name": "id",
              "type": "uint256"
            },
            {
              "internalType": "address",
              "name": "trader",
              "type": "address"
            },
            {
              "internalType": "enum Dex.Side",
              "name": "side",
              "type": "uint8"
            },
            {
              "internalType": "bytes32",
              "name": "ticker",
              "type": "bytes32"
            },
            {
              "internalType": "uint256",
              "name": "amount",
              "type": "uint256"
            },
            {
              "internalType": "uint256",
              "name": "price",
              "type": "uint256"
            }
          ],
          "internalType": "struct Dex.Order[]",
          "name": "",
          "type": "tuple[]"
        }
      ],
      "stateMutability": "view",
      "type": "function",
      "constant": true
    },
    {
      "inputs": [
        {
          "internalType": "enum Dex.Side",
          "name": "side",
          "type": "uint8"
        },
        {
          "internalType": "bytes32",
          "name": "ticker",
          "type": "bytes32"
        },
        {
          "internalType": "uint256",
          "name": "amount",
          "type": "uint256"
        },
        {
          "internalType": "uint256",
          "name": "price",
          "type": "uint256"
        }
      ],
      "name": "createLimitOrder",
      "outputs": [],
      "stateMutability": "nonpayable",
      "type": "function"
    }
  ],
  "bytecode": "0x608060405234801561001057600080fd5b5061002d61002261003260201b60201c565b61003a60201b60201c565b6100fe565b600033905090565b60008060009054906101000a900473ffffffffffffffffffffffffffffffffffffffff169050816000806101000a81548173ffffffffffffffffffffffffffffffffffffffff021916908373ffffffffffffffffffffffffffffffffffffffff1602179055508173ffffffffffffffffffffffffffffffffffffffff168173ffffffffffffffffffffffffffffffffffffffff167f8be0079c531659141344cd1fd0a4f28419497f9722a3daafe3b4186f6b6457e060405160405180910390a35050565b611a488061010d6000396000f3fe6080604052600436106100c25760003560e01c80638da5cb5b1161007f578063a8d2021a11610059578063a8d2021a1461025f578063ba58ea6814610288578063c9630cb0146102c5578063f2fde38b146102ee576100c2565b80638da5cb5b146101ce5780639776aacf146101f95780639ead722214610222576100c2565b80630bb431b6146100c75780631f14df6914610109578063439370b114610146578063667cb4ba146101505780636f3b62f91461018e578063715018a6146101b7575b600080fd5b3480156100d357600080fd5b506100ee60048036038101906100e99190611088565b610317565b604051610100969594939291906111b1565b60405180910390f35b34801561011557600080fd5b50610130600480360381019061012b919061123e565b6103aa565b60405161013d919061127e565b60405180910390f35b61014e6103cf565b005b34801561015c57600080fd5b5061017760048036038101906101729190611299565b6104c8565b6040516101859291906112c6565b60405180910390f35b34801561019a57600080fd5b506101b560048036038101906101b09190611314565b61050c565b005b3480156101c357600080fd5b506101cc6105cf565b005b3480156101da57600080fd5b506101e3610657565b6040516101f0919061137b565b60405180910390f35b34801561020557600080fd5b50610220600480360381019061021b9190611396565b610680565b005b34801561022e57600080fd5b50610249600480360381019061024491906113d6565b6107bb565b6040516102569190611403565b60405180910390f35b34801561026b57600080fd5b506102866004803603810190610281919061141e565b6107df565b005b34801561029457600080fd5b506102af60048036038101906102aa919061145e565b610a99565b6040516102bc9190611604565b60405180910390f35b3480156102d157600080fd5b506102ec60048036038101906102e7919061141e565b610be8565b005b3480156102fa57600080fd5b5061031560048036038101906103109190611626565b610e11565b005b6004602052826000526040600020602052816000526040600020818154811061033f57600080fd5b906000526020600020906005020160009250925050508060000154908060010160009054906101000a900473ffffffffffffffffffffffffffffffffffffffff16908060010160149054906101000a900460ff16908060020154908060030154908060040154905086565b6003602052816000526040600020602052806000526040600020600091509150505481565b61045234600360003373ffffffffffffffffffffffffffffffffffffffff1673ffffffffffffffffffffffffffffffffffffffff16815260200190815260200160002060007f4554480000000000000000000000000000000000000000000000000000000000815260200190815260200160002054610f0990919063ffffffff16565b600360003373ffffffffffffffffffffffffffffffffffffffff1673ffffffffffffffffffffffffffffffffffffffff16815260200190815260200160002060007f4554480000000000000000000000000000000000000000000000000000000000815260200190815260200160002081905550565b60016020528060005260406000206000915090508060000154908060010160009054906101000a900473ffffffffffffffffffffffffffffffffffffffff16905082565b600060018111156105205761051f61112b565b5b8460018111156105335761053261112b565b5b14156105c95761054c8183610f1f90919063ffffffff16565b600360003373ffffffffffffffffffffffffffffffffffffffff1673ffffffffffffffffffffffffffffffffffffffff16815260200190815260200160002060007f455448000000000000000000000000000000000000000000000000000000000081526020019081526020016000205410156105c857600080fd5b5b50505050565b6105d7610f35565b73ffffffffffffffffffffffffffffffffffffffff166105f5610657565b73ffffffffffffffffffffffffffffffffffffffff161461064b576040517f08c379a0000000000000000000000000000000000000000000000000000000008152600401610642906116b0565b60405180910390fd5b6106556000610f3d565b565b60008060009054906101000a900473ffffffffffffffffffffffffffffffffffffffff16905090565b610688610f35565b73ffffffffffffffffffffffffffffffffffffffff166106a6610657565b73ffffffffffffffffffffffffffffffffffffffff16146106fc576040517f08c379a00000000000000000000000000000000000000000000000000000000081526004016106f3906116b0565b60405180910390fd5b60405180604001604052808381526020018273ffffffffffffffffffffffffffffffffffffffff16815250600160008481526020019081526020016000206000820151816000015560208201518160010160006101000a81548173ffffffffffffffffffffffffffffffffffffffff021916908373ffffffffffffffffffffffffffffffffffffffff16021790555090505060028290806001815401808255809150506001900390600052602060002001600090919091909150555050565b600281815481106107cb57600080fd5b906000526020600020016000915090505481565b80600073ffffffffffffffffffffffffffffffffffffffff166001600083815260200190815260200160002060010160009054906101000a900473ffffffffffffffffffffffffffffffffffffffff1673ffffffffffffffffffffffffffffffffffffffff161415610886576040517f08c379a000000000000000000000000000000000000000000000000000000000815260040161087d9061171c565b60405180910390fd5b82600360003373ffffffffffffffffffffffffffffffffffffffff1673ffffffffffffffffffffffffffffffffffffffff1681526020019081526020016000206000848152602001908152602001600020541015610919576040517f08c379a000000000000000000000000000000000000000000000000000000000815260040161091090611788565b60405180910390fd5b61097c83600360003373ffffffffffffffffffffffffffffffffffffffff1673ffffffffffffffffffffffffffffffffffffffff16815260200190815260200160002060008581526020019081526020016000205461100190919063ffffffff16565b600360003373ffffffffffffffffffffffffffffffffffffffff1673ffffffffffffffffffffffffffffffffffffffff1681526020019081526020016000206000848152602001908152602001600020819055506001600083815260200190815260200160002060010160009054906101000a900473ffffffffffffffffffffffffffffffffffffffff1673ffffffffffffffffffffffffffffffffffffffff1663a9059cbb33856040518363ffffffff1660e01b8152600401610a419291906117a8565b602060405180830381600087803b158015610a5b57600080fd5b505af1158015610a6f573d6000803e3d6000fd5b505050506040513d601f19601f82011682018060405250810190610a939190611809565b50505050565b6060600460008481526020019081526020016000206000836001811115610ac357610ac261112b565b5b8152602001908152602001600020805480602002602001604051908101604052809291908181526020016000905b82821015610bdc57838290600052602060002090600502016040518060c0016040529081600082015481526020016001820160009054906101000a900473ffffffffffffffffffffffffffffffffffffffff1673ffffffffffffffffffffffffffffffffffffffff1673ffffffffffffffffffffffffffffffffffffffff1681526020016001820160149054906101000a900460ff166001811115610b9957610b9861112b565b5b6001811115610bab57610baa61112b565b5b8152602001600282015481526020016003820154815260200160048201548152505081526020019060010190610af1565b50505050905092915050565b80600073ffffffffffffffffffffffffffffffffffffffff166001600083815260200190815260200160002060010160009054906101000a900473ffffffffffffffffffffffffffffffffffffffff1673ffffffffffffffffffffffffffffffffffffffff161415610c8f576040517f08c379a0000000000000000000000000000000000000000000000000000000008152600401610c869061171c565b60405180910390fd5b6001600083815260200190815260200160002060010160009054906101000a900473ffffffffffffffffffffffffffffffffffffffff1673ffffffffffffffffffffffffffffffffffffffff166323b872dd3330866040518463ffffffff1660e01b8152600401610d0293929190611836565b602060405180830381600087803b158015610d1c57600080fd5b505af1158015610d30573d6000803e3d6000fd5b505050506040513d601f19601f82011682018060405250810190610d549190611809565b50610db883600360003373ffffffffffffffffffffffffffffffffffffffff1673ffffffffffffffffffffffffffffffffffffffff168152602001908152602001600020600085815260200190815260200160002054610f0990919063ffffffff16565b600360003373ffffffffffffffffffffffffffffffffffffffff1673ffffffffffffffffffffffffffffffffffffffff168152602001908152602001600020600084815260200190815260200160002081905550505050565b610e19610f35565b73ffffffffffffffffffffffffffffffffffffffff16610e37610657565b73ffffffffffffffffffffffffffffffffffffffff1614610e8d576040517f08c379a0000000000000000000000000000000000000000000000000000000008152600401610e84906116b0565b60405180910390fd5b600073ffffffffffffffffffffffffffffffffffffffff168173ffffffffffffffffffffffffffffffffffffffff161415610efd576040517f08c379a0000000000000000000000000000000000000000000000000000000008152600401610ef4906118df565b60405180910390fd5b610f0681610f3d565b50565b60008183610f17919061192e565b905092915050565b60008183610f2d9190611984565b905092915050565b600033905090565b60008060009054906101000a900473ffffffffffffffffffffffffffffffffffffffff169050816000806101000a81548173ffffffffffffffffffffffffffffffffffffffff021916908373ffffffffffffffffffffffffffffffffffffffff1602179055508173ffffffffffffffffffffffffffffffffffffffff168173ffffffffffffffffffffffffffffffffffffffff167f8be0079c531659141344cd1fd0a4f28419497f9722a3daafe3b4186f6b6457e060405160405180910390a35050565b6000818361100f91906119de565b905092915050565b600080fd5b6000819050919050565b61102f8161101c565b811461103a57600080fd5b50565b60008135905061104c81611026565b92915050565b6000819050919050565b61106581611052565b811461107057600080fd5b50565b6000813590506110828161105c565b92915050565b6000806000606084860312156110a1576110a0611017565b5b60006110af8682870161103d565b93505060206110c086828701611073565b92505060406110d186828701611073565b9150509250925092565b6110e481611052565b82525050565b600073ffffffffffffffffffffffffffffffffffffffff82169050919050565b6000611115826110ea565b9050919050565b6111258161110a565b82525050565b7f4e487b7100000000000000000000000000000000000000000000000000000000600052602160045260246000fd5b6002811061116b5761116a61112b565b5b50565b600081905061117c8261115a565b919050565b600061118c8261116e565b9050919050565b61119c81611181565b82525050565b6111ab8161101c565b82525050565b600060c0820190506111c660008301896110db565b6111d3602083018861111c565b6111e06040830187611193565b6111ed60608301866111a2565b6111fa60808301856110db565b61120760a08301846110db565b979650505050505050565b61121b8161110a565b811461122657600080fd5b50565b60008135905061123881611212565b92915050565b6000806040838503121561125557611254611017565b5b600061126385828601611229565b92505060206112748582860161103d565b9150509250929050565b600060208201905061129360008301846110db565b92915050565b6000602082840312156112af576112ae611017565b5b60006112bd8482850161103d565b91505092915050565b60006040820190506112db60008301856111a2565b6112e8602083018461111c565b9392505050565b600281106112fc57600080fd5b50565b60008135905061130e816112ef565b92915050565b6000806000806080858703121561132e5761132d611017565b5b600061133c878288016112ff565b945050602061134d8782880161103d565b935050604061135e87828801611073565b925050606061136f87828801611073565b91505092959194509250565b6000602082019050611390600083018461111c565b92915050565b600080604083850312156113ad576113ac611017565b5b60006113bb8582860161103d565b92505060206113cc85828601611229565b9150509250929050565b6000602082840312156113ec576113eb611017565b5b60006113fa84828501611073565b91505092915050565b600060208201905061141860008301846111a2565b92915050565b6000806040838503121561143557611434611017565b5b600061144385828601611073565b92505060206114548582860161103d565b9150509250929050565b6000806040838503121561147557611474611017565b5b60006114838582860161103d565b9250506020611494858286016112ff565b9150509250929050565b600081519050919050565b600082825260208201905092915050565b6000819050602082019050919050565b6114d381611052565b82525050565b6114e28161110a565b82525050565b6114f181611181565b82525050565b6115008161101c565b82525050565b60c08201600082015161151c60008501826114ca565b50602082015161152f60208501826114d9565b50604082015161154260408501826114e8565b50606082015161155560608501826114f7565b50608082015161156860808501826114ca565b5060a082015161157b60a08501826114ca565b50505050565b600061158d8383611506565b60c08301905092915050565b6000602082019050919050565b60006115b18261149e565b6115bb81856114a9565b93506115c6836114ba565b8060005b838110156115f75781516115de8882611581565b97506115e983611599565b9250506001810190506115ca565b5085935050505092915050565b6000602082019050818103600083015261161e81846115a6565b905092915050565b60006020828403121561163c5761163b611017565b5b600061164a84828501611229565b91505092915050565b600082825260208201905092915050565b7f4f776e61626c653a2063616c6c6572206973206e6f7420746865206f776e6572600082015250565b600061169a602083611653565b91506116a582611664565b602082019050919050565b600060208201905081810360008301526116c98161168d565b9050919050565b7f546f6b656e20646f6573206e6f74206578697374000000000000000000000000600082015250565b6000611706601483611653565b9150611711826116d0565b602082019050919050565b60006020820190508181036000830152611735816116f9565b9050919050565b7f42616c616e6365206e6f742073756666696369656e7400000000000000000000600082015250565b6000611772601683611653565b915061177d8261173c565b602082019050919050565b600060208201905081810360008301526117a181611765565b9050919050565b60006040820190506117bd600083018561111c565b6117ca60208301846110db565b9392505050565b60008115159050919050565b6117e6816117d1565b81146117f157600080fd5b50565b600081519050611803816117dd565b92915050565b60006020828403121561181f5761181e611017565b5b600061182d848285016117f4565b91505092915050565b600060608201905061184b600083018661111c565b611858602083018561111c565b61186560408301846110db565b949350505050565b7f4f776e61626c653a206e6577206f776e657220697320746865207a65726f206160008201527f6464726573730000000000000000000000000000000000000000000000000000602082015250565b60006118c9602683611653565b91506118d48261186d565b604082019050919050565b600060208201905081810360008301526118f8816118bc565b9050919050565b7f4e487b7100000000000000000000000000000000000000000000000000000000600052601160045260246000fd5b600061193982611052565b915061194483611052565b9250827fffffffffffffffffffffffffffffffffffffffffffffffffffffffffffffffff03821115611979576119786118ff565b5b828201905092915050565b600061198f82611052565b915061199a83611052565b9250817fffffffffffffffffffffffffffffffffffffffffffffffffffffffffffffffff04831182151516156119d3576119d26118ff565b5b828202905092915050565b60006119e982611052565b91506119f483611052565b925082821015611a0757611a066118ff565b5b82820390509291505056fea2646970667358221220d3b5cb5ff6b3c28361eb0ed0e37e86e9b55d49c3f8c6fc5472dc642c4d9cfe0864736f6c63430008080033",
  "immutableReferences": {},
  "source": "// SPDX-License-Identifier: MIT\r\n\r\npragma solidity 0.8.8;\r\npragma experimental ABIEncoderV2;\r\n\r\nimport \"./wallet.sol\";\r\n\r\ncontract Dex is Wallet{\r\n    using SafeMath for uint256;\r\n\r\n    enum Side{\r\n        BUY,\r\n        SELL\r\n    }\r\n\r\n    struct Order {\r\n        uint id;\r\n        address trader;\r\n        Side side;\r\n        bytes32 ticker;\r\n        uint amount;\r\n        uint price;\r\n    }\r\n\r\n    mapping(bytes32 => mapping(uint => Order[])) public orderBook;\r\n\r\n    function getOrderBook(bytes32 ticker, Side side) view public returns(Order[] memory) {\r\n        return orderBook[ticker][uint(side)];\r\n    }\r\n\r\n    function createLimitOrder(Side side, bytes32 ticker, uint amount, uint price) public {\r\n        if (side == Side.BUY) {\r\n            require(balances[msg.sender][\"ETH\"] >= amount.mul(price));\r\n        }\r\n    }\r\n}\r\n\r\n",
  "sourcePath": "E:\\dishonored 2\\Blockchain\\Project\\blockchain\\Building Dex Moralis\\contracts\\dex.sol",
  "compiler": {
    "name": "solc",
    "version": "0.8.8+commit.dddeac2f.Emscripten.clang"
  },
  "schemaVersion": "3.4.4",
  "updatedAt": "2022-06-16T14:56:23.674Z",
  "networkType": "ethereum",
  "devdoc": {
    "kind": "dev",
    "methods": {
      "owner()": {
        "details": "Returns the address of the current owner."
      },
      "renounceOwnership()": {
        "details": "Leaves the contract without owner. It will not be possible to call `onlyOwner` functions anymore. Can only be called by the current owner. NOTE: Renouncing ownership will leave the contract without an owner, thereby removing any functionality that is only available to the owner."
      },
      "transferOwnership(address)": {
        "details": "Transfers ownership of the contract to a new account (`newOwner`). Can only be called by the current owner."
      }
    },
    "version": 1
  },
  "userdoc": {
    "kind": "user",
    "methods": {},
    "version": 1
  }
}